S00C0000536567372E73726563C2
S11300000C946B000C9488000C9488000C94880069
S11300100C9488000C9488000C9488000C9488003C
S11300200C9488000C9488000C9488000C948A002A
S11300300C9488000C9488000C9488000C9488001C
S11300400C9488000C9488000C9488000C9488000C
S11300500C94880007634236B79BD8A71A396856B0
S113006018AEBAAB558C1D3CB7CC5763BD6DEDFDD6
S1130070753EF6177231BF000000803F0800000093
S1130080BE922449123EABAAAA2ABECDCCCC4C3E89
S113009000000080BEABAAAAAA3E00000000BF0078
S11300A00000803F0000000000084178D3BB438774
S11300B0D1133D190E3CC3BD4282AD2B3E68EC8288
S11300C076BED98FE1A93E4C80EFFFBE01C4FF7F0D
S11300D03F000000000011241FBECFE5D8E0DEBFC2
S11300E0CDBF10E0A0E6B0E0E2EEF9E002C005907A
S11300F00D92AE36B107D9F720E0AEE6B0E001C00C
S11301001D92AF36B207E1F70E940F010C94EF0481
S11301100C9400001F920F920FB60F9211248F932C
S11301209F93EF93FF9313BE81EC82BF81E090E035
S113013000906E0002C0880F991F0A94E2F785BBF5
S1130140E0916E00F0E0E05AFF4F808188BB80911F
S11301506E00843010F48F5F01C080E080936E00E5
S113016083E083BFFF91EF919F918F910F900FBE1A
S11301700F901F90189580916300803C29F008959A
S11301808FEF809361000895E0E6F0E08FEF8383C2
S11301908281803C29F48FEF82838181803C81F3CA
S11301A00895CF92DF92EF92FF920F931F93CF9314
S11301B06C0100E610E0C0E00F2EFAE0EF2EF12C07
S11301C0F02D6C2F70E080E090E00E9468019B01AC
S11301D0AC0160E070E080E291E40E94CE010E94F4
S11301E03201AB01BC01C601BA010E94C704CB01B4
S11301F0B7010E94C704FC01EC59FF4F8081F8014C
S113020081938F01CF5FC430E1F60E94BB00CF9190
S11302101F910F91FF90EF90DF90CF9008951ABA3D
S11302208FEF87BB84BB8BBB81EC82BF81E089BF2E
S113023083E083BF80E090E00E94D1007894C0E026
S1130240D0E099B39E3FE9F72196CE010E94D100F8
S11302502FEF80E792E0215080409040E1F700C00A
S11302600000EFCF0E9439016894B1110C94C801C9
S113027008950E94AD0188F09F5798F0B92F9927EF
S1130280B751B0F0E1F0660F771F881F991F1AF07D
S1130290BA95C9F714C0B13091F00E94C701B1E01A
S11302A008950C94C701672F782F8827B85F39F019
S11302B0B93FCCF3869577956795B395D9F73EF416
S11302C090958095709561957F4F8F4F9F4F0895BE
S11302D0E89409C097FB3EF49095809570956195DC
S11302E07F4F8F4F9F4F9923A9F0F92F96E9BB2792
S11302F09395F695879577956795B795F111F8CF0E
S1130300FAF4BB0F11F460FF1BC06F5F7F4F8F4F78
S11303109F4F16C0882311F096E911C0772321F06E
S11303209EE8872F762F05C0662371F096E8862F06
S113033070E060E02AF09A95660F771F881FDAF75D
S1130340880F9695879597F9089557FD9058440F0F
S1130350551F59F05F3F71F04795880F97FB991F20
S113036061F09F3F79F087950895121613061406DD
S1130370551FF2CF4695F1DF08C01616170618066A
S1130380991FF1CF86957105610508940895E89445
S1130390BB2766277727CB0197F90895FA01EE0F5B
S11303A0FF1F309621053105A1F16115710561F436
S11303B08038BFE39B0749F168949038810561F068
S11303C08038BFEF9B0741F099234AF5FF3FE105D1
S11303D03105210519F1E8940894E795D901AA2378
S11303E029F4AB2FBE2FF85FD0F310C0FF5F70F479
S11303F0A695E0F7F73950F019F0FF3A38F49F77F3
S11304009F930DD00F9007FC9058089546F00C94DC
S11304105E0260E070E080E89FE308954FE79F7715
S11304205F934F933F932F930E94D2022F913F915A
S11304304F915F910E944E030C94260229F416F00A
S11304400C9458020C94C7010C945E020E94AD01F6
S1130450A8F39638A0F707F80F92E8942BE33AEA4A
S113046048EB5FE70E9464030F920F920F924DB71F
S11304705EB70F920E941A03E4E5F0E00E94610265
S11304804F915F91EF91FF91E595EE1FFF1F49F0AA
S1130490FE57E0684427EE0F441FFA95E1F74195B3
S11304A0550B0E9494020F9007FE0C948802089545
S11304B097F99F6780E870E060E008959FEF80EC13
S11304C00895DF93CF931F930F93FF92EF92DF92E0
S11304D07B018C01689406C0DA2EEF010E9461034F
S11304E0FE01E894A5912591359145915591A6F386
S11304F0EF010E94D303FE019701A801DA9469F782
S1130500DF90EF90FF900F911F91CF91DF910895AD
S11305109B01AC0160E070E080E89FE30C94280448
S11305200C9458020C949A040E94AD01D8F39923B8
S1130530C9F3940F511DA3F39150504094F059F016
S1130540882332F0660F771F881F91505040C1F7FF
S11305509E3F51052CF7880F911D9695879597F925
S113056008955F3FACF0983E9CF0BB278695779545
S11305706795B79508F4B1609395C1F7BB0F58F729
S113058011F460FFE8CF6F5F7F4F8F4F9F4FE3CF32
S11305900C94C80116F00C949A040C945E026894AE
S11305A00C9458020E94AD01A8F39923C1F3AEF351
S11305B0DF93CF931F930F93FF92C92FDD278823D7
S11305C02AF02197660F771F881FDAF720E030E0C2
S11305D040E85FEB9FE3883920F0803E38F02196B5
S11305E08F770E94BC03ECE7F0E004C00E94BC03D8
S11305F0E9EAF0E00E9461028B01BE01EC01FB2EEE
S11306006F5771097595771F880B990B0E946A01C2
S113061028E132E741E35FE30E946103AF2D9801D3
S1130620AE01FF900F911F91CF91DF910E94D303F0
S11306300C94B604FA01DC01AA0FBB1F9B01AC01A8
S1130640BF5728F4222733274427507820C0B751B6
S113065090F4AB2F0024469537952795011CA3955C
S1130660D2F3002071F0220F331F441FB395DAF345
S11306700ED00C94BB0361307105A0E88A07B9461B
S113068030F49B01AC016627772788279078309651
S113069021F0208331834283538308950E946103B0
S11306A00C94B6040E94A80438F00E94AF0420F011
S11306B0952311F00C9458020C945E0211240C94AE
S11306C0C8010E94A50170F3959FC1F3950F50E0F6
S11306D0551F629FF001729FBB27F00DB11D639FF0
S11306E0AA27F00DB11DAA1F649F6627B00DA11D96
S11306F0661F829F2227B00DA11D621F739FB00D3C
S1130700A11D621F839FA00D611D221F749F3327AB
S1130710A00D611D231F849F600D211D822F762F44
S11307206A2F11249F5750409AF0F1F088234AF021
S1130730EE0FFF1FBB1F661F771F881F915050408D
S1130740A9F79E3F510580F00C9458020C94C801FF
S11307505F3FE4F3983ED4F3869577956795B79514
S1130760F795E7959F5FC1F7FE2B880F911D96952E
S1130770879597F908955058BB27AA270E94D30359
S11307800C94B6040E94A80438F00E94AF0420F030
S113079039F49F3F19F426F40C945E020EF4E095AC
S11307A0E7FB0C945802E92F0E94A50158F3BA17ED
S11307B0620773078407950720F079F4A6F50C9473
S11307C0C7010EF4E0950B2EBA2FA02D0B01B90131
S11307D090010C01CA01A0011124FF27591B99F0B3
S11307E0593F50F4503E68F11A16F040A22F232FBF
S11307F0342F4427585FF3CF469537952795A7950F
S1130800F0405395C9F77EF41F16BA0B620B730BB5
S1130810840BBAF09150A1F0FF0FBB1F661F771F26
S1130820881FC2F70EC0BA0F621F731F841F48F4DB
S1130830879577956795B795F7959E3F08F0B0CF64
S11308409395880F08F09927EE0F9795879508954B
S11308500E943C040C94B6040E94AF0458F00E9419
S1130860A80440F029F45F3F29F00C945802511178
S11308700C94C8010C945E020E94A50168F39923AC
S1130880B1F3552391F3951B550BBB27AA27621788
S11308907307840738F09F5F5F4F220F331F441F95
S11308A0AA1FA9F335D00E2E3AF0E0E832D09150C9
S11308B05040E695001CCAF72BD0FE2F29D0660FB6
S11308C0771F881FBB1F261737074807AB07B0E8F9
S11308D009F0BB0B802DBF01FF2793585F4F3AF0FF
S11308E09E3F510578F00C9458020C94C8015F3F68
S11308F0E4F3983ED4F3869577956795B795F79585
S11309009F5FC9F7880F911D9695879597F908956C
S1130910E1E0660F771F881FBB1F62177307840708
S1130920BA0720F0621B730B840BBA0BEE1F88F717
S1130930E09508959F3F31F0915020F48795779585
S11309406795B795880F911D9695879597F90895A2
S113095000240A941616170618060906089500249A
S11309600A9412161306140605060895092E039414
S1130970000C11F4882352F0BB0F40F4BF2B11F488
S113098060FF04C06F5F7F4F8F4F9F4F089597FBA9
S1130990072E16F4009407D077FD09D00E94DB04DB
S11309A007FC05D03EF4909581959F4F089570956E
S11309B061957F4F0895AA1BBB1B51E107C0AA1F75
S11309C0BB1FA617B70710F0A61BB70B881F991FEC
S11309D05A95A9F780959095BC01CD010895F89496
S10509E0FFCF43
S11109E2FFFFFFFFC0F9A4B0999282D8809065
S9030000FC
