S01700004763634170706C69636174696F6E312E737265635B
S11300000C942A000C9434000C9434000C943400A6
S11300100C9434000C9434000C9434000C9434008C
S11300200C9434000C9434000C9434000C9434007C
S11300300C9434000C9434000C9434000C9434006C
S11300400C9434000C9434000C9434000C9434005C
S11300500C94340011241FBECFE5D4E0DEBFCDBF25
S11300600E9436000C945E000C9400008FEF8ABB53
S113007084BB21E094E082E02BBB95BB3FEF4AE1D7
S113008057EB315040405040E1F700C000008BBBBB
S113009085BB3FE342E45FE0315040405040E1F72C
S11300A000C000009BBB25BB3FEF4AE157EB31503A
S11300B040405040E1F700C00000DECFF894FFCF8D
S9030000FC
