:100000000C942A000C943C000C943C000C943C0092
:100010000C943C000C943C000C943C000C943C0070
:100020000C943C000C943C000C943C000C943C0060
:100030000C943C000C943C000C943C000C943C0050
:100040000C943C000C943C000C943C000C943C0040
:100050000C943C0011241FBECFE5D4E0DEBFCDBF21
:1000600020E0A0E6B0E001C01D92A037B207E1F7A2
:100070000E9457010C943A030C940000CF93DF9335
:10008000A8E6B0E0E0E6F0E080E090E041E050E09B
:100090009A01082E02C0220F331F0A94E2F720951E
:1000A0002BBB2D9128BB219122BBCFE9DFE021970B
:1000B000F1F700C0000001968830910549F7DF9103
:1000C000CF9108951F93CF93DF9300D0CDB7DEB7C4
:1000D00089836A83142F4FE060E0CE0101960E946D
:1000E0006F0147E060E0CE0102960E946F018981B6
:1000F000883068F447E0481B2A8187E090E0821B43
:100100009109612F88599F4F0E9483010DC02FE0F4
:10011000422F481B3A8187E090E0831B9109612FB1
:10012000805A9F4F0E9483010F900F90DF91CF91D3
:100130001F9108953F924F925F926F927F928F929C
:100140009F92AF92BF92CF92DF92EF92FF920F9366
:100150001F93CF93DF9300D000D0CDB7DEB7E82E4A
:10016000F62E642E712C681A7108D22ED61A8D2D97
:100170000E947A01182F862D0E947A01612F0E9419
:100180006A01182F682F70E080E090E00E94AC02B6
:100190004B015C01B301770C880B990B0E94AE02F6
:1001A000A50194010E940B022B013C016D2DDD0C79
:1001B000770B880B990B0E94AE02A50194010E9457
:1001C0000B0269837A838B839C836E2D70E080E0C1
:1001D00090E00E94AC024B015C016F2D70E080E06A
:1001E00090E00E94AC026B017C0100E0C701B60107
:1001F0000E947D02362EC501B4010E947D02862F29
:1002000041E0632D0E946200A3019201C501B40187
:100210000E949F014B015C0129813A814B815C81E5
:10022000C701B6010E949F016B017C010F5F10178F
:10023000E8F60F900F900F900F90DF91CF911F91E4
:100240000F91FF90EF90DF90CF90BF90AF909F9075
:100250008F907F906F905F904F903F9008950F9395
:100260001F93CF93DF93082F162FD22FCFEFC80FF6
:10027000C40F262F4C2F0E949A008FEF810FD80FAA
:100280002D2F4C2F6D2F802F0E949A002D2F402F45
:10029000612F802F0E949A002D2F4C2F612F8C2FC1
:1002A0000E949A00DF91CF911F910F9108958FEFD7
:1002B0008ABB87BB81BB24E046E062E082E00E940B
:1002C0002F0126E04EE061E089E00E949A000E9442
:1002D0003E00FDCF681708F4682F862F0895FC01B3
:1002E0002081261710F460830895421710F4FC0152
:1002F00040830895082E000C990B99231CF49195C6
:10030000819591090895662361F021E030E002C0F3
:10031000220F331F4A95E2F7FC013081232B208303
:10032000089521E030E002C0220F331F4A95E2F722
:100330002095FC0130812323208308955058BB274A
:10034000AA270E94B6010C9400030E94F20238F022
:100350000E94F90220F039F49F3F19F426F40C941E
:10036000EF020EF4E095E7FB0C94E902E92F0E94FE
:10037000110358F3BA17620773078407950720F033
:1003800079F4A6F50C9433030EF4E0950B2EBA2FF6
:10039000A02D0B01B90190010C01CA01A00111248B
:1003A000FF27591B99F0593F50F4503E68F11A1637
:1003B000F040A22F232F342F4427585FF3CF4695C8
:1003C00037952795A795F0405395C9F77EF41F16EA
:1003D000BA0B620B730B840BBAF09150A1F0FF0FB4
:1003E000BB1F661F771F881FC2F70EC0BA0F621FA0
:1003F000731F841F48F4879577956795B795F79590
:100400009E3F08F0B0CF9395880F08F09927EE0F24
:100410009795879508950E941F020C9400030E94EF
:10042000F90258F00E94F20240F029F45F3F29F0EF
:100430000C94E90251110C9434030C94EF020E94C5
:10044000110368F39923B1F3552391F3951B550BD1
:10045000BB27AA2762177307840738F09F5F5F4F97
:10046000220F331F441FAA1FA9F335D00E2E3AF0D6
:10047000E0E832D091505040E695001CCAF72BD0EE
:10048000FE2F29D0660F771F881FBB1F261737073F
:100490004807AB07B0E809F0BB0B802DBF01FF2771
:1004A00093585F4F3AF09E3F510578F00C94E90263
:1004B0000C9434035F3FE4F3983ED4F3869577952C
:1004C0006795B795F7959F5FC9F7880F911D96952A
:1004D000879597F90895E1E0660F771F881FBB1F86
:1004E000621773078407BA0720F0621B730B840B33
:1004F000BA0BEE1F88F7E09508950E94190388F063
:100500009F5798F0B92F9927B751B0F0E1F0660FD7
:10051000771F881F991F1AF0BA95C9F714C0B13018
:1005200091F00E943303B1E008950C943303672FD8
:10053000782F8827B85F39F0B93FCCF38695779547
:100540006795B395D9F73EF4909580957095619530
:100550007F4F8F4F9F4F0895E89409C097FB3EF45B
:1005600090958095709561957F4F8F4F9F4F992300
:10057000A9F0F92F96E9BB279395F695879577957E
:100580006795B795F111F8CFFAF4BB0F11F460FF3E
:100590001BC06F5F7F4F8F4F9F4F16C0882311F096
:1005A00096E911C0772321F09EE8872F762F05C0AA
:1005B000662371F096E8862F70E060E02AF09A9545
:1005C000660F771F881FDAF7880F9695879597F93A
:1005D000089597F99F6780E870E060E008959FEFC5
:1005E00080EC089500240A941616170618060906CA
:1005F000089500240A941216130614060506089599
:10060000092E0394000C11F4882352F0BB0F40F420
:10061000BF2B11F460FF04C06F5F7F4F8F4F9F4F60
:10062000089557FD9058440F551F59F05F3F71F0E2
:100630004795880F97FB991F61F09F3F79F0879549
:100640000895121613061406551FF2CF4695F1DFD2
:1006500008C0161617061806991FF1CF8695710562
:10066000610508940895E894BB2766277727CB0196
:0806700097F90895F894FFCFFB
:00000001FF
