:100000000C942A000C943F000C943F000C943F0089
:100010000C943F000C943F000C943F000C943F0064
:100020000C943F000C943F000C943F000C943F0054
:100030000C943F000C943F000C943F000C943F0044
:100040000C943F000C943F000C943F000C943F0034
:100050000C943F0011241FBECFE5D4E0DEBFCDBF1E
:1000600010E0A0E6B0E0E6E3F1E002C005900D92FA
:10007000AA36B107D9F70E9441000C9499000C945C
:100080000000CF93DF93CDB7DEB72A970FB6F89471
:10009000DEBF0FBECDBF8FEF8ABB87BB8AE0E0E635
:1000A000F0E0DE01119601900D928A95E1F78981C9
:1000B0008BBB898188BB2FE33DE053E0215030406A
:1000C0005040E1F700C0000080E091E020E041E016
:1000D0001EC0E1E0F0E0EC0FFD1FE90FF11D3081E3
:1000E0003BBBE1E0F0E0EC0FFD1FE80FF11D3081BC
:1000F00038BB9F5F6FE33DE053E0615030405040BC
:10010000E1F700C000009A3010F08F5F922F8A3024
:1001100000F389818BBB898188BB6FE38DE093E01D
:10012000615080409040E1F700C00000822F942F82
:06013000EECFF894FFCFB2
:0A0136003F065B4F666D7D077F6F8B
:00000001FF
