:020000020000FC
:0200000016C028
:10002C0044C03F065B4F666D7D277F6F090A241421
:10003C0002E00EBF00E00DBF0FEF04BB01BB02BB23
:10004C000FEF0ABB66275AE0772701EC02BF01E0ED
:10005C0009BF03E003BF78940E9439000E9443005B
:10006C000E945500F9CF33274427152F1A3018F06A
:10007C0043951A50FBCF312F0895F0E081E0932F78
:10008C000E944D0082E0942F0E944D00089582BB87
:10009C00EEE2E90F049105BB0E947C000895F0E0AC
:1000AC00E8E3E60F04910BBB0895002703BF0E9401
:1000BC00640001EC02BF03E003BF189573950AEFCF
:1000CC007013089577275A95533019F40E947600CF
:1000DC0008950FEF501308955AE00E94760008958A
:1000EC00639504E0601308956627089513E028E9EA
:0A00FC002A95F1F71A95E1F708952F
:00000001FF
